{
  "_format": "hh-sol-artifact-1",
  "contractName": "SensorRegistryV2",
  "sourceName": "contracts/SensorRegistryV2.sol",
  "abi": [
    {
      "inputs": [
        {
          "internalType": "address",
          "name": "admin",
          "type": "address"
        },
        {
          "internalType": "address",
          "name": "gateway",
          "type": "address"
        }
      ],
      "stateMutability": "nonpayable",
      "type": "constructor"
    },
    {
      "inputs": [],
      "name": "AccessControlBadConfirmation",
      "type": "error"
    },
    {
      "inputs": [
        {
          "internalType": "address",
          "name": "account",
          "type": "address"
        },
        {
          "internalType": "bytes32",
          "name": "neededRole",
          "type": "bytes32"
        }
      ],
      "name": "AccessControlUnauthorizedAccount",
      "type": "error"
    },
    {
      "anonymous": false,
      "inputs": [
        {
          "indexed": true,
          "internalType": "bytes32",
          "name": "dataHash",
          "type": "bytes32"
        },
        {
          "indexed": true,
          "internalType": "bytes16",
          "name": "deviceId",
          "type": "bytes16"
        },
        {
          "indexed": true,
          "internalType": "uint32",
          "name": "seq",
          "type": "uint32"
        },
        {
          "indexed": false,
          "internalType": "uint64",
          "name": "deviceTs",
          "type": "uint64"
        },
        {
          "indexed": false,
          "internalType": "uint64",
          "name": "blockTs",
          "type": "uint64"
        },
        {
          "indexed": false,
          "internalType": "uint8",
          "name": "sensorMask",
          "type": "uint8"
        },
        {
          "indexed": false,
          "internalType": "address",
          "name": "submitter",
          "type": "address"
        }
      ],
      "name": "ReadingStored",
      "type": "event"
    },
    {
      "anonymous": false,
      "inputs": [
        {
          "indexed": true,
          "internalType": "bytes32",
          "name": "role",
          "type": "bytes32"
        },
        {
          "indexed": true,
          "internalType": "bytes32",
          "name": "previousAdminRole",
          "type": "bytes32"
        },
        {
          "indexed": true,
          "internalType": "bytes32",
          "name": "newAdminRole",
          "type": "bytes32"
        }
      ],
      "name": "RoleAdminChanged",
      "type": "event"
    },
    {
      "anonymous": false,
      "inputs": [
        {
          "indexed": true,
          "internalType": "bytes32",
          "name": "role",
          "type": "bytes32"
        },
        {
          "indexed": true,
          "internalType": "address",
          "name": "account",
          "type": "address"
        },
        {
          "indexed": true,
          "internalType": "address",
          "name": "sender",
          "type": "address"
        }
      ],
      "name": "RoleGranted",
      "type": "event"
    },
    {
      "anonymous": false,
      "inputs": [
        {
          "indexed": true,
          "internalType": "bytes32",
          "name": "role",
          "type": "bytes32"
        },
        {
          "indexed": true,
          "internalType": "address",
          "name": "account",
          "type": "address"
        },
        {
          "indexed": true,
          "internalType": "address",
          "name": "sender",
          "type": "address"
        }
      ],
      "name": "RoleRevoked",
      "type": "event"
    },
    {
      "inputs": [],
      "name": "DEFAULT_ADMIN_ROLE",
      "outputs": [
        {
          "internalType": "bytes32",
          "name": "",
          "type": "bytes32"
        }
      ],
      "stateMutability": "view",
      "type": "function"
    },
    {
      "inputs": [],
      "name": "GATEWAY_ROLE",
      "outputs": [
        {
          "internalType": "bytes32",
          "name": "",
          "type": "bytes32"
        }
      ],
      "stateMutability": "view",
      "type": "function"
    },
    {
      "inputs": [
        {
          "internalType": "bytes32",
          "name": "role",
          "type": "bytes32"
        }
      ],
      "name": "getRoleAdmin",
      "outputs": [
        {
          "internalType": "bytes32",
          "name": "",
          "type": "bytes32"
        }
      ],
      "stateMutability": "view",
      "type": "function"
    },
    {
      "inputs": [
        {
          "internalType": "bytes32",
          "name": "role",
          "type": "bytes32"
        },
        {
          "internalType": "address",
          "name": "account",
          "type": "address"
        }
      ],
      "name": "grantRole",
      "outputs": [],
      "stateMutability": "nonpayable",
      "type": "function"
    },
    {
      "inputs": [
        {
          "internalType": "bytes32",
          "name": "role",
          "type": "bytes32"
        },
        {
          "internalType": "address",
          "name": "account",
          "type": "address"
        }
      ],
      "name": "hasRole",
      "outputs": [
        {
          "internalType": "bool",
          "name": "",
          "type": "bool"
        }
      ],
      "stateMutability": "view",
      "type": "function"
    },
    {
      "inputs": [
        {
          "internalType": "bytes16",
          "name": "",
          "type": "bytes16"
        }
      ],
      "name": "lastSeqByDevice",
      "outputs": [
        {
          "internalType": "uint32",
          "name": "",
          "type": "uint32"
        }
      ],
      "stateMutability": "view",
      "type": "function"
    },
    {
      "inputs": [
        {
          "internalType": "bytes32",
          "name": "",
          "type": "bytes32"
        }
      ],
      "name": "readings",
      "outputs": [
        {
          "internalType": "bytes32",
          "name": "dataHash",
          "type": "bytes32"
        },
        {
          "internalType": "uint64",
          "name": "deviceTs",
          "type": "uint64"
        },
        {
          "internalType": "uint64",
          "name": "blockTs",
          "type": "uint64"
        },
        {
          "internalType": "uint8",
          "name": "sensorMask",
          "type": "uint8"
        },
        {
          "internalType": "bytes16",
          "name": "deviceId",
          "type": "bytes16"
        },
        {
          "internalType": "address",
          "name": "submitter",
          "type": "address"
        },
        {
          "internalType": "uint32",
          "name": "seq",
          "type": "uint32"
        }
      ],
      "stateMutability": "view",
      "type": "function"
    },
    {
      "inputs": [
        {
          "internalType": "bytes32",
          "name": "role",
          "type": "bytes32"
        },
        {
          "internalType": "address",
          "name": "callerConfirmation",
          "type": "address"
        }
      ],
      "name": "renounceRole",
      "outputs": [],
      "stateMutability": "nonpayable",
      "type": "function"
    },
    {
      "inputs": [
        {
          "internalType": "bytes32",
          "name": "role",
          "type": "bytes32"
        },
        {
          "internalType": "address",
          "name": "account",
          "type": "address"
        }
      ],
      "name": "revokeRole",
      "outputs": [],
      "stateMutability": "nonpayable",
      "type": "function"
    },
    {
      "inputs": [
        {
          "internalType": "bytes16",
          "name": "deviceId",
          "type": "bytes16"
        },
        {
          "internalType": "bytes32[]",
          "name": "hs",
          "type": "bytes32[]"
        },
        {
          "internalType": "uint64[]",
          "name": "ts",
          "type": "uint64[]"
        },
        {
          "internalType": "uint8[]",
          "name": "masks",
          "type": "uint8[]"
        }
      ],
      "name": "storeBatch",
      "outputs": [],
      "stateMutability": "nonpayable",
      "type": "function"
    },
    {
      "inputs": [
        {
          "internalType": "bytes16",
          "name": "deviceId",
          "type": "bytes16"
        },
        {
          "internalType": "bytes32",
          "name": "dataHash",
          "type": "bytes32"
        },
        {
          "internalType": "uint64",
          "name": "deviceTs",
          "type": "uint64"
        },
        {
          "internalType": "uint8",
          "name": "sensorMask",
          "type": "uint8"
        }
      ],
      "name": "storeReading",
      "outputs": [],
      "stateMutability": "nonpayable",
      "type": "function"
    },
    {
      "inputs": [
        {
          "internalType": "bytes4",
          "name": "interfaceId",
          "type": "bytes4"
        }
      ],
      "name": "supportsInterface",
      "outputs": [
        {
          "internalType": "bool",
          "name": "",
          "type": "bool"
        }
      ],
      "stateMutability": "view",
      "type": "function"
    }
  ],
  "bytecode": "0x60806040523480156200001157600080fd5b5060405162001c5438038062001c54833981810160405281019062000037919062000267565b6200004c6000801b836200008860201b60201c565b506200007f7fb90e9995c6170fff8ea03e9ad6919878e483770c237f1a6f330ceaa7112b344a826200008860201b60201c565b505050620002ae565b60006200009c83836200018b60201b60201c565b6200018057600160008085815260200190815260200160002060000160008473ffffffffffffffffffffffffffffffffffffffff1673ffffffffffffffffffffffffffffffffffffffff16815260200190815260200160002060006101000a81548160ff0219169083151502179055506200011c620001f560201b60201c565b73ffffffffffffffffffffffffffffffffffffffff168273ffffffffffffffffffffffffffffffffffffffff16847f2f8788117e7eff1d82e926ec794901d17c78024a50270940304540a733656f0d60405160405180910390a46001905062000185565b600090505b92915050565b600080600084815260200190815260200160002060000160008373ffffffffffffffffffffffffffffffffffffffff1673ffffffffffffffffffffffffffffffffffffffff16815260200190815260200160002060009054906101000a900460ff16905092915050565b600033905090565b600080fd5b600073ffffffffffffffffffffffffffffffffffffffff82169050919050565b60006200022f8262000202565b9050919050565b620002418162000222565b81146200024d57600080fd5b50565b600081519050620002618162000236565b92915050565b60008060408385031215620002815762000280620001fd565b5b6000620002918582860162000250565b9250506020620002a48582860162000250565b9150509250929050565b61199680620002be6000396000f3fe608060405234801561001057600080fd5b50600436106100b45760003560e01c806390ed0bd51161007157806390ed0bd5146101a357806391d14854146101bf578063a217fddf146101ef578063b4dd2f851461020d578063c50d6dd91461023d578063d547741f1461025b576100b4565b806301ffc9a7146100b957806310ef8c0b146100e9578063248a9ca31461011f5780632f2ff15d1461014f57806336568abe1461016b5780635a69b2f914610187575b600080fd5b6100d360048036038101906100ce91906110a9565b610277565b6040516100e091906110f1565b60405180910390f35b61010360048036038101906100fe9190611142565b6102f1565b6040516101169796959493929190611258565b60405180910390f35b61013960048036038101906101349190611142565b6103a5565b60405161014691906112c7565b60405180910390f35b6101696004803603810190610164919061130e565b6103c4565b005b6101856004803603810190610180919061130e565b6103e6565b005b6101a1600480360381019061019c91906113d2565b610461565b005b6101bd60048036038101906101b8919061154a565b6107cb565b005b6101d960048036038101906101d4919061130e565b610cb3565b6040516101e691906110f1565b60405180910390f35b6101f7610d1d565b60405161020491906112c7565b60405180910390f35b61022760048036038101906102229190611613565b610d24565b6040516102349190611640565b60405180910390f35b610245610d47565b60405161025291906112c7565b60405180910390f35b6102756004803603810190610270919061130e565b610d6b565b005b60007f7965db0b000000000000000000000000000000000000000000000000000000007bffffffffffffffffffffffffffffffffffffffffffffffffffffffff1916827bffffffffffffffffffffffffffffffffffffffffffffffffffffffff191614806102ea57506102e982610d8d565b5b9050919050565b60016020528060005260406000206000915090508060000154908060010160009054906101000a900467ffffffffffffffff16908060010160089054906101000a900467ffffffffffffffff16908060010160109054906101000a900460ff16908060020160009054906101000a900460801b908060030160009054906101000a900473ffffffffffffffffffffffffffffffffffffffff16908060030160149054906101000a900463ffffffff16905087565b6000806000838152602001908152602001600020600101549050919050565b6103cd826103a5565b6103d681610df7565b6103e08383610e0b565b50505050565b6103ee610efc565b73ffffffffffffffffffffffffffffffffffffffff168173ffffffffffffffffffffffffffffffffffffffff1614610452576040517f6697b23200000000000000000000000000000000000000000000000000000000815260040160405180910390fd5b61045c8282610f04565b505050565b7fb90e9995c6170fff8ea03e9ad6919878e483770c237f1a6f330ceaa7112b344a61048b81610df7565b60006001600086815260200190815260200160002060010160089054906101000a900467ffffffffffffffff1667ffffffffffffffff1614610502576040517f08c379a00000000000000000000000000000000000000000000000000000000081526004016104f9906116b8565b60405180910390fd5b6000600160026000886fffffffffffffffffffffffffffffffff19166fffffffffffffffffffffffffffffffff1916815260200190815260200160002060009054906101000a900463ffffffff1661055a9190611707565b90508060026000886fffffffffffffffffffffffffffffffff19166fffffffffffffffffffffffffffffffff1916815260200190815260200160002060006101000a81548163ffffffff021916908363ffffffff1602179055506040518060e001604052808681526020018567ffffffffffffffff1681526020014267ffffffffffffffff1681526020018460ff168152602001876fffffffffffffffffffffffffffffffff191681526020013373ffffffffffffffffffffffffffffffffffffffff1681526020018263ffffffff16815250600160008781526020019081526020016000206000820151816000015560208201518160010160006101000a81548167ffffffffffffffff021916908367ffffffffffffffff16021790555060408201518160010160086101000a81548167ffffffffffffffff021916908367ffffffffffffffff16021790555060608201518160010160106101000a81548160ff021916908360ff16021790555060808201518160020160006101000a8154816fffffffffffffffffffffffffffffffff021916908360801c021790555060a08201518160030160006101000a81548173ffffffffffffffffffffffffffffffffffffffff021916908373ffffffffffffffffffffffffffffffffffffffff16021790555060c08201518160030160146101000a81548163ffffffff021916908363ffffffff1602179055509050508063ffffffff16866fffffffffffffffffffffffffffffffff1916867f4475912bfb6632fbee8bb3e32fe8314c8a6fb42766837fe82b1004de4d963d17874288336040516107bb949392919061173f565b60405180910390a4505050505050565b7fb90e9995c6170fff8ea03e9ad6919878e483770c237f1a6f330ceaa7112b344a6107f581610df7565b6000878790509050808686905014801561081157508084849050145b610850576040517f08c379a0000000000000000000000000000000000000000000000000000000008152600401610847906117d0565b60405180910390fd5b60005b81811015610ca7576000600160008b8b85818110610874576108736117f0565b5b90506020020135815260200190815260200160002060010160089054906101000a900467ffffffffffffffff1667ffffffffffffffff16146108eb576040517f08c379a00000000000000000000000000000000000000000000000000000000081526004016108e29061186b565b60405180910390fd5b60006001600260008d6fffffffffffffffffffffffffffffffff19166fffffffffffffffffffffffffffffffff1916815260200190815260200160002060009054906101000a900463ffffffff166109439190611707565b905080600260008d6fffffffffffffffffffffffffffffffff19166fffffffffffffffffffffffffffffffff1916815260200190815260200160002060006101000a81548163ffffffff021916908363ffffffff1602179055506040518060e001604052808b8b858181106109bb576109ba6117f0565b5b9050602002013581526020018989858181106109da576109d96117f0565b5b90506020020160208101906109ef919061188b565b67ffffffffffffffff1681526020014267ffffffffffffffff168152602001878785818110610a2157610a206117f0565b5b9050602002016020810190610a3691906118b8565b60ff1681526020018c6fffffffffffffffffffffffffffffffff191681526020013373ffffffffffffffffffffffffffffffffffffffff1681526020018263ffffffff16815250600160008c8c86818110610a9457610a936117f0565b5b9050602002013581526020019081526020016000206000820151816000015560208201518160010160006101000a81548167ffffffffffffffff021916908367ffffffffffffffff16021790555060408201518160010160086101000a81548167ffffffffffffffff021916908367ffffffffffffffff16021790555060608201518160010160106101000a81548160ff021916908360ff16021790555060808201518160020160006101000a8154816fffffffffffffffffffffffffffffffff021916908360801c021790555060a08201518160030160006101000a81548173ffffffffffffffffffffffffffffffffffffffff021916908373ffffffffffffffffffffffffffffffffffffffff16021790555060c08201518160030160146101000a81548163ffffffff021916908363ffffffff1602179055509050508063ffffffff168b6fffffffffffffffffffffffffffffffff19168b8b85818110610c0157610c006117f0565b5b905060200201357f4475912bfb6632fbee8bb3e32fe8314c8a6fb42766837fe82b1004de4d963d178b8b87818110610c3c57610c3b6117f0565b5b9050602002016020810190610c51919061188b565b428b8b89818110610c6557610c646117f0565b5b9050602002016020810190610c7a91906118b8565b33604051610c8b949392919061173f565b60405180910390a4508080610c9f906118ef565b915050610853565b50505050505050505050565b600080600084815260200190815260200160002060000160008373ffffffffffffffffffffffffffffffffffffffff1673ffffffffffffffffffffffffffffffffffffffff16815260200190815260200160002060009054906101000a900460ff16905092915050565b6000801b81565b60026020528060005260406000206000915054906101000a900463ffffffff1681565b7fb90e9995c6170fff8ea03e9ad6919878e483770c237f1a6f330ceaa7112b344a81565b610d74826103a5565b610d7d81610df7565b610d878383610f04565b50505050565b60007f01ffc9a7000000000000000000000000000000000000000000000000000000007bffffffffffffffffffffffffffffffffffffffffffffffffffffffff1916827bffffffffffffffffffffffffffffffffffffffffffffffffffffffff1916149050919050565b610e0881610e03610efc565b610ff6565b50565b6000610e178383610cb3565b610ef157600160008085815260200190815260200160002060000160008473ffffffffffffffffffffffffffffffffffffffff1673ffffffffffffffffffffffffffffffffffffffff16815260200190815260200160002060006101000a81548160ff021916908315150217905550610e8e610efc565b73ffffffffffffffffffffffffffffffffffffffff168273ffffffffffffffffffffffffffffffffffffffff16847f2f8788117e7eff1d82e926ec794901d17c78024a50270940304540a733656f0d60405160405180910390a460019050610ef6565b600090505b92915050565b600033905090565b6000610f108383610cb3565b15610feb57600080600085815260200190815260200160002060000160008473ffffffffffffffffffffffffffffffffffffffff1673ffffffffffffffffffffffffffffffffffffffff16815260200190815260200160002060006101000a81548160ff021916908315150217905550610f88610efc565b73ffffffffffffffffffffffffffffffffffffffff168273ffffffffffffffffffffffffffffffffffffffff16847ff6391f5c32d9c69d2a47ea670b442974b53935d1edc7fd64eb21e047a839171b60405160405180910390a460019050610ff0565b600090505b92915050565b6110008282610cb3565b6110435780826040517fe2517d3f00000000000000000000000000000000000000000000000000000000815260040161103a929190611937565b60405180910390fd5b5050565b600080fd5b600080fd5b60007fffffffff0000000000000000000000000000000000000000000000000000000082169050919050565b61108681611051565b811461109157600080fd5b50565b6000813590506110a38161107d565b92915050565b6000602082840312156110bf576110be611047565b5b60006110cd84828501611094565b91505092915050565b60008115159050919050565b6110eb816110d6565b82525050565b600060208201905061110660008301846110e2565b92915050565b6000819050919050565b61111f8161110c565b811461112a57600080fd5b50565b60008135905061113c81611116565b92915050565b60006020828403121561115857611157611047565b5b60006111668482850161112d565b91505092915050565b6111788161110c565b82525050565b600067ffffffffffffffff82169050919050565b61119b8161117e565b82525050565b600060ff82169050919050565b6111b7816111a1565b82525050565b60007fffffffffffffffffffffffffffffffff0000000000000000000000000000000082169050919050565b6111f2816111bd565b82525050565b600073ffffffffffffffffffffffffffffffffffffffff82169050919050565b6000611223826111f8565b9050919050565b61123381611218565b82525050565b600063ffffffff82169050919050565b61125281611239565b82525050565b600060e08201905061126d600083018a61116f565b61127a6020830189611192565b6112876040830188611192565b61129460608301876111ae565b6112a160808301866111e9565b6112ae60a083018561122a565b6112bb60c0830184611249565b98975050505050505050565b60006020820190506112dc600083018461116f565b92915050565b6112eb81611218565b81146112f657600080fd5b50565b600081359050611308816112e2565b92915050565b6000806040838503121561132557611324611047565b5b60006113338582860161112d565b9250506020611344858286016112f9565b9150509250929050565b611357816111bd565b811461136257600080fd5b50565b6000813590506113748161134e565b92915050565b6113838161117e565b811461138e57600080fd5b50565b6000813590506113a08161137a565b92915050565b6113af816111a1565b81146113ba57600080fd5b50565b6000813590506113cc816113a6565b92915050565b600080600080608085870312156113ec576113eb611047565b5b60006113fa87828801611365565b945050602061140b8782880161112d565b935050604061141c87828801611391565b925050606061142d878288016113bd565b91505092959194509250565b600080fd5b600080fd5b600080fd5b60008083601f84011261145e5761145d611439565b5b8235905067ffffffffffffffff81111561147b5761147a61143e565b5b60208301915083602082028301111561149757611496611443565b5b9250929050565b60008083601f8401126114b4576114b3611439565b5b8235905067ffffffffffffffff8111156114d1576114d061143e565b5b6020830191508360208202830111156114ed576114ec611443565b5b9250929050565b60008083601f84011261150a57611509611439565b5b8235905067ffffffffffffffff8111156115275761152661143e565b5b60208301915083602082028301111561154357611542611443565b5b9250929050565b60008060008060008060006080888a03121561156957611568611047565b5b60006115778a828b01611365565b975050602088013567ffffffffffffffff8111156115985761159761104c565b5b6115a48a828b01611448565b9650965050604088013567ffffffffffffffff8111156115c7576115c661104c565b5b6115d38a828b0161149e565b9450945050606088013567ffffffffffffffff8111156115f6576115f561104c565b5b6116028a828b016114f4565b925092505092959891949750929550565b60006020828403121561162957611628611047565b5b600061163784828501611365565b91505092915050565b60006020820190506116556000830184611249565b92915050565b600082825260208201905092915050565b7f416c72656164792073746f726564000000000000000000000000000000000000600082015250565b60006116a2600e8361165b565b91506116ad8261166c565b602082019050919050565b600060208201905081810360008301526116d181611695565b9050919050565b7f4e487b7100000000000000000000000000000000000000000000000000000000600052601160045260246000fd5b600061171282611239565b915061171d83611239565b9250828201905063ffffffff811115611739576117386116d8565b5b92915050565b60006080820190506117546000830187611192565b6117616020830186611192565b61176e60408301856111ae565b61177b606083018461122a565b95945050505050565b7f4c656e206d69736d617463680000000000000000000000000000000000000000600082015250565b60006117ba600c8361165b565b91506117c582611784565b602082019050919050565b600060208201905081810360008301526117e9816117ad565b9050919050565b7f4e487b7100000000000000000000000000000000000000000000000000000000600052603260045260246000fd5b7f4475706c69636174652068617368000000000000000000000000000000000000600082015250565b6000611855600e8361165b565b91506118608261181f565b602082019050919050565b6000602082019050818103600083015261188481611848565b9050919050565b6000602082840312156118a1576118a0611047565b5b60006118af84828501611391565b91505092915050565b6000602082840312156118ce576118cd611047565b5b60006118dc848285016113bd565b91505092915050565b6000819050919050565b60006118fa826118e5565b91507fffffffffffffffffffffffffffffffffffffffffffffffffffffffffffffffff820361192c5761192b6116d8565b5b600182019050919050565b600060408201905061194c600083018561122a565b611959602083018461116f565b939250505056fea26469706673582212204e204767e3086a6659aeb2aac230a603ab58ab111ef0093fe156960631babb7764736f6c63430008140033",
  "linkReferences": {},
  "deployedLinkReferences": {}
}